S01D000055535F4C43445F50524A5F446176795F52616974742E737265638C
S113000045C000005AC200005EC000005CC0000091
S11300105AC0000058C0000056C0000054C0000080
S113002052C0000050C000004EC000004CC0000090
S11300304AC0000048C0000046C0000044C00000A0
S113004042C0000040C000003EC000003CC00000B0
S11300503AC0000038C0000036C0000034C00000C0
S113006032C0000030C000002EC000002CC00000D0
S11300702AC0000028C0000026C0000024C00000E0
S113008022C0000020C000001EC0000011241FBEBA
S1130090CFEFD0E1DEBFCDBF11E0A0E0B1E0EEE8EC
S11300A0F0E100E00BBF02C007900D92A832B10747
S11300B0D9F721E0A8E2B1E001C01D92A133B20753
S11300C0E1F721D2E2C79CCF18BA8AE090E0CCD203
S11300D081E088BB089580912F0190913001813097
S11300E0910569F01CF4892B39F00895823091054B
S11300F051F0039761F0089510922801089581E06A
S113010080932801089582E080932801089583E074
S1130110809328010895CF92DF92EF92FF9260912D
S11301202B0170912C0180912D0190912E0120E0E2
S113013030E040E251E4BBD218162CF081E08BBBD6
S113014084E690E09BD2C0902B01D0902C01E090EB
S11301502D01F0902E0120E030E040EA51E4C70187
S1130160B601A5D2181674F020E030E040E251E464
S1130170C701B601EBD388232CF083E08BBB84E664
S113018090E07CD2C0902B01D0902C01E0902D0106
S1130190F0902E0120E030E040EF51E4C701B601B9
S11301A086D2181674F020E030E040EA51E4C7012A
S11301B0B601CCD388232CF087E08BBB84E690E097
S11301C05DD2C0902B01D0902C01E0902D01F090D5
S11301D02E0120E030E040E252E4C701B60167D2CC
S11301E0181674F020E030E040EF51E4C701B60186
S11301F0ADD388232CF08FE08BBB84E690E03ED215
S1130200C0902B01D0902C01E0902D01F0902E0194
S113021020E030E048E452E4C701B60148D21816A1
S113022074F020E030E040E252E4C701B6018ED31E
S113023088232CF08FE18BBB84E690E01FD2C09022
S11302402B01D0902C01E0902D01F0902E0120E0A4
S113025030E040E752E4C701B60129D2181674F021
S113026020E030E048E452E4C701B6016FD38823AC
S11302702CF08FE38BBB84E690E000D2C0902B017E
S1130280D0902C01E0902D01F0902E0120E030E080
S11302904CE852E4C701B6010AD2181674F020E003
S11302A030E040E752E4C701B60150D388232CF074
S11302B08FE78BBB84E690E0E1D160912B017091D4
S11302C02C0180912D0190912E0120E030E04EE927
S11302D052E43CD388232CF08FEF8BBB84E690E070
S11302E0CDD1FF90EF90DF90CF9008950F931F939F
S11302F0CF93DF93CDB7DEB72A970FB6F894DEBF5E
S11303000FBECDBFA6D188EC90E0B8D18091280172
S113031081112AC060912B0170912C0180912D01D3
S113032090912E0130D27F936F9385E091E09F935B
S11303308F938E010F5F1F4F1F930F93CBD3F80141
S113034001900020E9F7319780E293E49183808360
S11303508DE490E093838283C8015FD10F900F9066
S11303600F900F900F900F9080912801813071F5BC
S11303706091290170912A0180E090E035D22AE948
S113038039E94DEE51E497D1FED17F936F9385E027
S113039091E09F938F938E010F5F1F4F1F930F93D5
S11303A099D3F80101900020E9F7319780E29DE4A8
S11303B0918380838DE490E093838283C8012DD15F
S11303C00F900F900F900F900F900F908091280135
S11303D0823079F52CE033E949EC5EE360912B013E
S11303E070912C0180912D0190912E01B3D215D3DF
S11303F0CAD17F936F9385E091E09F938F938E0191
S11304000F5F1F4F1F930F9365D3D8010D900020EA
S1130410E9F7119788E0E8E0F1E001900D928A9500
S1130420E1F7C801FAD00F900F900F900F900F9042
S11304300F9080912801833091F56091290170918A
S11304402A0180E090E0D0D12AE939E94DEE51E467
S113045032D120E030E040EA50E42DD194D17F93B2
S11304606F9385E091E09F938F938E010F5F1F4FF1
S11304701F930F932FD3D8010D900020E9F7119704
S113048088E0E0E1F1E001900D928A95E1F7C8017E
S1130490C4D00F900F900F900F900F900F9088E89A
S11304A093E1ECD02A960FB6F894DEBF0FBECDBF11
S11304B0DF91CF911F910F9108951F920F920FB664
S11304C00F9211248F939F9380910001813041F406
S11304D082E080936A001DBC1CBC109200010CC019
S11304E083E080936A008CB59DB59093020180935C
S11304F0010181E0809300019F918F910F900FBEC5
S11305000F901F901895C9D083E080936A0089B733
S1130510816089BF1FBC8CE08EBD789456D088E181
S113052091E07BD088EB9BE0A9D0CEDD80910101E6
S1130530909102012AEA289FE001299FD00D1124FD
S1130540D0932A01C0932901CE0169E271E0AED2B1
S113055080E090E049D161D260932B0170932C012B
S113056080932D0190932E01CD2B11F0BFDED3DDAE
S11305708091630080FF14C080912F01909130011D
S113058001969093300180932F01209103013091C3
S113059004012817390724F41092300110922F0116
S11305A09ADDC3CF85B3886085BB89EF90E001975E
S11305B0F1F700C0000085B3877F85BB89EF90E029
S11305C00197F1F700C000000895CF938FEF84BB2B
S11305D015BAC0E2C5BBE6DFC5BBE4DF80E885BB76
S11305E0E1DF15BADFDF80EF85BBDCDF15BADADFC8
S11305F080E685BBD7DFCF910895CF93C82F85BB05
S113060085B3846085BBCEDFC295C07FC5BB85B38F
S1130610846085BBC7DFCF910895CF93DF93EC014E
S113062002C0EBDF219688818111FBCFDF91CF914E
S11306300895CF93C82F85BB85B38B7F85BBB2DF6D
S1130640C295C07FC5BB85B38B7F85BBABDFCF9124
S1130650089581E0EEDF83EF91E00197F1F700C0A8
S1130660000080E8E6CF089520E030E003C00000F9
S11306702F5F3F4F28173907D0F3089520E030E06B
S113068008C0E9EFF0E03197F1F700C000002F5FF8
S11306903F4F28173907A8F308958FEF8ABB87BB0C
S11306A011BAE4E6F0E080818E7F80830895D9D08A
S11306B008F481E008950CD00FC107D140F0FED0BA
S11306C030F021F45F3F19F0F0C0511139C1F3C08B
S11306D014D198F39923C9F35523B1F3951B550B02
S11306E0BB27AA2762177307840738F09F5F5F4F01
S11306F0220F331F441FAA1FA9F333D00E2E3AF042
S1130700E0E830D091505040E695001CCAF729D05B
S1130710FE2F27D0660F771F881FBB1F26173707AA
S11307204807AB07B0E809F0BB0B802DBF01FF27DA
S113073093585F4F2AF09E3F510568F0B6C000C140
S11307405F3FECF3983EDCF3869577956795B79514
S1130750F7959F5FC9F7880F911D9695879597F92F
S11307600895E1E0660F771F881FBB1F62177307A8
S11307708407BA0720F0621B730B840BBA0BEE1FBD
S113078088F7E095089504D06894B111D9C008950C
S1130790BCD088F09F5790F0B92F9927B751A0F09B
S11307A0D1F0660F771F881F991F1AF0BA95C9F701
S11307B012C0B13081F0C3D0B1E00895C0C0672F3A
S11307C0782F8827B85F39F0B93FCCF386957795B1
S11307D06795B395D9F73EF490958095709561959A
S11307E07F4F8F4F9F4F0895E89409C097FB3EF4C5
S11307F090958095709561957F4F8F4F9F4F99236A
S1130800A9F0F92F96E9BB279395F69587957795E7
S11308106795B795F111F8CFFAF4BB0F11F460FFA7
S11308201BC06F5F7F4F8F4F9F4F16C0882311F0FF
S113083096E911C0772321F09EE8872F762F05C013
S1130840662371F096E8862F70E060E02AF09A95AE
S1130850660F771F881FDAF7880F9695879597F9A3
S11308600895990F0008550FAA0BE0E8FEEF16163D
S11308701706E807F907C0F012161306E407F50790
S113088098F0621B730B840B950B39F40A2661F004
S1130890232B242B252B21F408950A2609F4A140A7
S11308A0A6958FEF811D811D089597F99F6780E8B4
S11308B070E060E008959FEF80EC089500240A94AE
S11308C01616170618060906089500240A94121627
S11308D01306140605060895092E0394000C11F45A
S11308E0882352F0BB0F40F4BF2B11F460FF04C007
S11308F06F5F7F4F8F4F9F4F089557FD9058440F60
S1130900551F59F05F3F71F04795880F97FB991F6A
S113091061F09F3F79F08795089512161306140627
S1130920551FF2CF4695F1DF08C0161617061806B4
S1130930991FF1CF86957105610508940895E8948F
S1130940BB2766277727CB0197F908958ADF08F438
S11309508FEF08950BD0C0CFB1DF28F0B6DF18F0C9
S1130960952309F0A2CFA7CF1124EACFC6DFA0F3C5
S1130970959FD1F3950F50E0551F629FF001729F30
S1130980BB27F00DB11D639FAA27F00DB11DAA1F4F
S1130990649F6627B00DA11D661F829F2227B00D9C
S11309A0A11D621F739FB00DA11D621F839FA00D27
S11309B0611D221F749F3327A00D611D231F849F77
S11309C0600D211D822F762F6A2F11249F575040CE
S11309D08AF0E1F088234AF0EE0FFF1FBB1F661F69
S11309E0771F881F91505040A9F79E3F510570F022
S11309F05CCFA6CF5F3FECF3983EDCF3869577950A
S1130A006795B795F795E7959F5FC1F7FE2B880F1C
S1130A10911D9695879597F9089577DFE0F09E37B5
S1130A20D8F09639B8F49E3848F4672F782F882781
S1130A30985FF9CF86957795679593959539D0F317
S1130A40B62FB1706B0F711D811D20F487957795BA
S1130A506795939502C01CC073CF882371F47723E4
S1130A6021F09850872B762F07C0662311F499271D
S1130A700DC09051862B70E060E02AF09A95660FC5
S1130A80771F881FDAF7880F9695879597F9089549
S1130A909F3F31F0915020F4879577956795B795EE
S1130AA0880F911D9695879597F90895AA1BBB1BEE
S1130AB051E107C0AA1FBB1FA617B70710F0A61B5A
S1130AC0B70B881F991F5A95A9F780959095BC017B
S1130AD0CD0108950F931F93CF93DF93CDB7DEB766
S1130AE02E970FB6F894DEBF0FBECDBF0D891E89B9
S1130AF086E08C831A8309838FEF9FE79E838D831F
S1130B00AE01475E5F4F6F89788DCE01019610D09C
S1130B10EF81F885E00FF11F10822E960FB6F8943E
S1130B20DEBF0FBECDBFDF91CF911F910F9108950E
S1130B302F923F924F925F926F927F928F929F92E9
S1130B40AF92BF92CF92DF92EF92FF920F931F93D7
S1130B50CF93DF93CDB7DEB72B970FB6F894DEBFF4
S1130B600FBECDBF6C017B018A01FC011782168286
S1130B70838181FFBFC1CE0101963C01F6019381BF
S1130B80F70193FD859193FF81917F01882309F4F7
S1130B90ADC1853239F493FD859193FF81917F0135
S1130BA0853221F4B60190E0D6D1E8CF912C212CE6
S1130BB0312CFFE1F315D8F08B3279F038F4803220
S1130BC079F08332A1F4232D20611DC08D3261F0B0
S1130BD0803369F4232D216016C0832D8260382E62
S1130BE0E32DE4603E2E2AC0F32DF8601DC037FCCF
S1130BF02DC020ED280F2A3040F08E32B9F436FC97
S1130C0075C1232D2064322E19C036FE06C08AE039
S1130C10989E200D1124922E11C0EAE02E9E200DE4
S1130C201124222EF32DF0623F2E08C08C3621F4BD
S1130C30832D8068382E02C0883641F4F70193FD75
S1130C40859193FF81917F018111B3CF982F9F7D6F
S1130C509554933028F40C5F1F4F9FE399830DC084
S1130C60833631F0833771F0833509F055C020C0E5
S1130C70F801808189830E5F1F4F88248394912C0F
S1130C80530112C02801F2E04F0E511CF801A0805C
S1130C90B18036FE03C0692D70E002C06FEF7FEFB4
S1130CA0C5014ED14C018201F32DFF773F2E15C0B3
S1130CB0280122E0420E511CF801A080B18036FECA
S1130CC003C0692D70E002C06FEF7FEFC5012DD125
S1130CD04C01F32DF0683F2E820133FC19C0822DA4
S1130CE090E088169906A0F4B60180E290E033D132
S1130CF02A94F5CFF50137FC859137FE81915F0188
S1130D00B60190E028D121102A9421E0821A91089A
S1130D108114910479F7E1C0843611F0893639F5EC
S1130D20F80137FE07C060817181828193810C5F75
S1130D301F4F08C060817181072E000C880B990B2E
S1130D400E5F1F4FF32DFF763F2E97FF09C090953E
S1130D508095709561957F4F8F4F9F4FF0683F2E20
S1130D602AE030E0A30133D1882E861844C08537A9
S1130D7031F4232D2F7EB22E2AE030E025C0932DAE
S1130D80997FB92E8F36C1F018F4883579F0AEC04A
S1130D90803719F0883721F0A9C0E92FE061BE2E11
S1130DA0B4FE0DC0FB2DF460BF2E09C034FE0AC092
S1130DB0292F2660B22E06C028E030E005C020E1CD
S1130DC030E002C020E132E0F801B7FE07C06081E4
S1130DD07181828193810C5F1F4F06C06081718194
S1130DE080E090E00E5F1F4FA301F1D0882E86189B
S1130DF0FB2DFF773F2E36FE0DC0232D2E7FA22E16
S1130E00891458F434FE0BC032FC09C0832D8E7E45
S1130E10A82E05C0B82CA32C03C0B82C01C0B92C33
S1130E20A4FE0FC0FE01E80DF11D8081803321F482
S1130E309A2D997EA92E09C0A2FE06C0B394B3943C
S1130E4004C08A2D867809F0B394A3FC10C0A0FED8
S1130E5006C0B21480F4280C922C9B180DC0B21456
S1130E6058F4B60180E290E076D0B394F8CFB2148F
S1130E7018F42B1802C0982C212CA4FE0FC0B60124
S1130E8080E390E068D0A2FE16C0A1FC03C088E70E
S1130E9090E002C088E590E0B6010CC08A2D867807
S1130EA051F0A1FE02C08BE201C080E2A7FC8DE2FA
S1130EB0B60190E050D0891430F4B60180E390E09C
S1130EC04AD09A94F8CF8A94F301E80DF11D8081F9
S1130ED0B60190E040D08110F6CF222009F44ECE26
S1130EE0B60180E290E037D02A94F7CFF6018681EC
S1130EF0978102C08FEF9FEF2B960FB6F894DEBF59
S1130F000FBECDBFDF91CF911F910F91FF90EF9056
S1130F10DF90CF90BF90AF909F908F907F906F9015
S1130F205F904F903F902F900895FC010590615081
S1130F3070400110D8F7809590958E0F9F1F0895EB
S1130F40FC016150704001900110D8F78095909594
S1130F508E0F9F1F08950F931F93CF93DF93FB0171
S1130F60238121FD03C08FEF9FEF2CC022FF16C009
S1130F7046815781248135814217530744F4A08167
S1130F80B1819D012F5F3F4F318320838C93268154
S1130F9037812F5F3F4F3783268314C08B01EC01C9
S1130FA0FB010084F185E02D0995892BE1F6D80138
S1130FB016968D919C911797019617969C938E93F4
S1130FC01697CE01DF91CF911F910F910895FA01E9
S1130FD0AA27283051F1203181F1E8946F936E7F74
S1130FE06E5F7F4F8F4F9F4FAF4FB1E03ED0B4E065
S1130FF03CD0670F781F891F9A1FA11D680F791FA6
S11310008A1F911DA11D6A0F711D811D911DA11DB6
S113101020D009F468943F912AE0269F11243019C6
S1131020305D3193DEF6CF010895462F4770405D61
S11310304193B3E00FD0C9F7F6CF462F4F70405D10
S11310404A3318F0495D31FD4052419302D0A9F76B
S1131050EACFB4E0A6959795879577956795BA9565
S1131060C9F700976105710508959B01AC010A2E2B
S113107006945795479537952795BA95C9F7620F02
S1111080731F841F951FA01D0895F894FFCFC1
S113108E017D00030025640020494E43484553006A
S113109E20477261696E73005374617274696E676E
S10B10AE2055532E2E2E2E00B6
S9030000FC
